{
  "_format": "hh-sol-artifact-1",
  "contractName": "DailyGM",
  "sourceName": "contracts/DailyGM.sol",
  "abi": [
    {
      "inputs": [],
      "stateMutability": "nonpayable",
      "type": "constructor"
    },
    {
      "inputs": [
        {
          "internalType": "address",
          "name": "owner",
          "type": "address"
        }
      ],
      "name": "OwnableInvalidOwner",
      "type": "error"
    },
    {
      "inputs": [
        {
          "internalType": "address",
          "name": "account",
          "type": "address"
        }
      ],
      "name": "OwnableUnauthorizedAccount",
      "type": "error"
    },
    {
      "anonymous": false,
      "inputs": [
        {
          "indexed": true,
          "internalType": "address",
          "name": "user",
          "type": "address"
        },
        {
          "indexed": false,
          "internalType": "uint256",
          "name": "streak",
          "type": "uint256"
        },
        {
          "indexed": false,
          "internalType": "uint256",
          "name": "timestamp",
          "type": "uint256"
        }
      ],
      "name": "GM",
      "type": "event"
    },
    {
      "anonymous": false,
      "inputs": [
        {
          "indexed": true,
          "internalType": "address",
          "name": "previousOwner",
          "type": "address"
        },
        {
          "indexed": true,
          "internalType": "address",
          "name": "newOwner",
          "type": "address"
        }
      ],
      "name": "OwnershipTransferred",
      "type": "event"
    },
    {
      "anonymous": false,
      "inputs": [
        {
          "indexed": true,
          "internalType": "address",
          "name": "user",
          "type": "address"
        },
        {
          "indexed": false,
          "internalType": "uint256",
          "name": "streak",
          "type": "uint256"
        },
        {
          "indexed": false,
          "internalType": "uint256",
          "name": "timestamp",
          "type": "uint256"
        }
      ],
      "name": "StreakRestored",
      "type": "event"
    },
    {
      "inputs": [],
      "name": "PROTOCOL_FEE",
      "outputs": [
        {
          "internalType": "uint256",
          "name": "",
          "type": "uint256"
        }
      ],
      "stateMutability": "view",
      "type": "function"
    },
    {
      "inputs": [],
      "name": "RESTORE_FEE",
      "outputs": [
        {
          "internalType": "uint256",
          "name": "",
          "type": "uint256"
        }
      ],
      "stateMutability": "view",
      "type": "function"
    },
    {
      "inputs": [
        {
          "internalType": "address",
          "name": "",
          "type": "address"
        }
      ],
      "name": "brokenStreak",
      "outputs": [
        {
          "internalType": "uint256",
          "name": "",
          "type": "uint256"
        }
      ],
      "stateMutability": "view",
      "type": "function"
    },
    {
      "inputs": [
        {
          "internalType": "address",
          "name": "",
          "type": "address"
        }
      ],
      "name": "currentStreak",
      "outputs": [
        {
          "internalType": "uint256",
          "name": "",
          "type": "uint256"
        }
      ],
      "stateMutability": "view",
      "type": "function"
    },
    {
      "inputs": [],
      "name": "gm",
      "outputs": [],
      "stateMutability": "payable",
      "type": "function"
    },
    {
      "inputs": [
        {
          "internalType": "address",
          "name": "",
          "type": "address"
        }
      ],
      "name": "lastGMTime",
      "outputs": [
        {
          "internalType": "uint256",
          "name": "",
          "type": "uint256"
        }
      ],
      "stateMutability": "view",
      "type": "function"
    },
    {
      "inputs": [
        {
          "internalType": "address",
          "name": "",
          "type": "address"
        }
      ],
      "name": "longestStreak",
      "outputs": [
        {
          "internalType": "uint256",
          "name": "",
          "type": "uint256"
        }
      ],
      "stateMutability": "view",
      "type": "function"
    },
    {
      "inputs": [],
      "name": "owner",
      "outputs": [
        {
          "internalType": "address",
          "name": "",
          "type": "address"
        }
      ],
      "stateMutability": "view",
      "type": "function"
    },
    {
      "inputs": [],
      "name": "renounceOwnership",
      "outputs": [],
      "stateMutability": "nonpayable",
      "type": "function"
    },
    {
      "inputs": [],
      "name": "restoreStreak",
      "outputs": [],
      "stateMutability": "payable",
      "type": "function"
    },
    {
      "inputs": [
        {
          "internalType": "address",
          "name": "",
          "type": "address"
        }
      ],
      "name": "totalGMs",
      "outputs": [
        {
          "internalType": "uint256",
          "name": "",
          "type": "uint256"
        }
      ],
      "stateMutability": "view",
      "type": "function"
    },
    {
      "inputs": [
        {
          "internalType": "address",
          "name": "newOwner",
          "type": "address"
        }
      ],
      "name": "transferOwnership",
      "outputs": [],
      "stateMutability": "nonpayable",
      "type": "function"
    },
    {
      "inputs": [],
      "name": "withdraw",
      "outputs": [],
      "stateMutability": "nonpayable",
      "type": "function"
    }
  ],
  "bytecode": "0x608060405234801561001057600080fd5b5033600073ffffffffffffffffffffffffffffffffffffffff168173ffffffffffffffffffffffffffffffffffffffff16036100845760006040517f1e4fbdf700000000000000000000000000000000000000000000000000000000815260040161007b919061019e565b60405180910390fd5b6100938161009960201b60201c565b506101b9565b60008060009054906101000a900473ffffffffffffffffffffffffffffffffffffffff169050816000806101000a81548173ffffffffffffffffffffffffffffffffffffffff021916908373ffffffffffffffffffffffffffffffffffffffff1602179055508173ffffffffffffffffffffffffffffffffffffffff168173ffffffffffffffffffffffffffffffffffffffff167f8be0079c531659141344cd1fd0a4f28419497f9722a3daafe3b4186f6b6457e060405160405180910390a35050565b600073ffffffffffffffffffffffffffffffffffffffff82169050919050565b60006101888261015d565b9050919050565b6101988161017d565b82525050565b60006020820190506101b3600083018461018f565b92915050565b61114a80620001c96000396000f3fe6080604052600436106100c25760003560e01c806379f8b97f1161007f5780638da5cb5b116100595780638da5cb5b14610249578063c0129d4314610274578063de96303b1461027e578063f2fde38b146102bb576100c2565b806379f8b97f146101925780637f66f956146101cf57806381eddd511461020c576100c2565b80630b4501fd146100c75780633ccfd60b146100f25780635c45f739146101095780636bfe6d60146101465780636fd4e9ad14610150578063715018a61461017b575b600080fd5b3480156100d357600080fd5b506100dc6102e4565b6040516100e99190610e5e565b60405180910390f35b3480156100fe57600080fd5b506101076102ee565b005b34801561011557600080fd5b50610130600480360381019061012b9190610edc565b610346565b60405161013d9190610e5e565b60405180910390f35b61014e61035e565b005b34801561015c57600080fd5b5061016561068d565b6040516101729190610e5e565b60405180910390f35b34801561018757600080fd5b50610190610698565b005b34801561019e57600080fd5b506101b960048036038101906101b49190610edc565b6106ac565b6040516101c69190610e5e565b60405180910390f35b3480156101db57600080fd5b506101f660048036038101906101f19190610edc565b6106c4565b6040516102039190610e5e565b60405180910390f35b34801561021857600080fd5b50610233600480360381019061022e9190610edc565b6106dc565b6040516102409190610e5e565b60405180910390f35b34801561025557600080fd5b5061025e6106f4565b60405161026b9190610f18565b60405180910390f35b61027c61071d565b005b34801561028a57600080fd5b506102a560048036038101906102a09190610edc565b610c54565b6040516102b29190610e5e565b60405180910390f35b3480156102c757600080fd5b506102e260048036038101906102dd9190610edc565b610c6c565b005b650da475abf00081565b6102f6610cf2565b6102fe6106f4565b73ffffffffffffffffffffffffffffffffffffffff166108fc479081150290604051600060405180830381858888f19350505050158015610343573d6000803e3d6000fd5b50565b60026020528060005260406000206000915090505481565b6601c6bf526340003410156103a8576040517f08c379a000000000000000000000000000000000000000000000000000000000815260040161039f90610f90565b60405180910390fd5b6000600560003373ffffffffffffffffffffffffffffffffffffffff1673ffffffffffffffffffffffffffffffffffffffff168152602001908152602001600020541161042a576040517f08c379a000000000000000000000000000000000000000000000000000000000815260040161042190610ffc565b60405180910390fd5b600560003373ffffffffffffffffffffffffffffffffffffffff1673ffffffffffffffffffffffffffffffffffffffff16815260200190815260200160002054600260003373ffffffffffffffffffffffffffffffffffffffff1673ffffffffffffffffffffffffffffffffffffffff168152602001908152602001600020819055506000600560003373ffffffffffffffffffffffffffffffffffffffff1673ffffffffffffffffffffffffffffffffffffffff16815260200190815260200160002081905550600460003373ffffffffffffffffffffffffffffffffffffffff1673ffffffffffffffffffffffffffffffffffffffff16815260200190815260200160002054600260003373ffffffffffffffffffffffffffffffffffffffff1673ffffffffffffffffffffffffffffffffffffffff1681526020019081526020016000205411156105fc57600260003373ffffffffffffffffffffffffffffffffffffffff1673ffffffffffffffffffffffffffffffffffffffff16815260200190815260200160002054600460003373ffffffffffffffffffffffffffffffffffffffff1673ffffffffffffffffffffffffffffffffffffffff168152602001908152602001600020819055505b3373ffffffffffffffffffffffffffffffffffffffff167f13de277933cc8b3093d247e1f2d4325d2ae2520e0794076abbe55422fa1b7542600260003373ffffffffffffffffffffffffffffffffffffffff1673ffffffffffffffffffffffffffffffffffffffff168152602001908152602001600020544260405161068392919061101c565b60405180910390a2565b6601c6bf5263400081565b6106a0610cf2565b6106aa6000610d79565b565b60016020528060005260406000206000915090505481565b60056020528060005260406000206000915090505481565b60036020528060005260406000206000915090505481565b60008060009054906101000a900473ffffffffffffffffffffffffffffffffffffffff16905090565b650da475abf000341015610766576040517f08c379a000000000000000000000000000000000000000000000000000000000815260040161075d90610f90565b60405180910390fd5b6000600160003373ffffffffffffffffffffffffffffffffffffffff1673ffffffffffffffffffffffffffffffffffffffff1681526020019081526020016000205490506000429050600082146109d65762015180826107c69190611074565b811015610808576040517f08c379a00000000000000000000000000000000000000000000000000000000081526004016107ff906110f4565b60405180910390fd5b6202a300826108179190611074565b811115610934576001600260003373ffffffffffffffffffffffffffffffffffffffff1673ffffffffffffffffffffffffffffffffffffffff1681526020019081526020016000205411156108ea57600260003373ffffffffffffffffffffffffffffffffffffffff1673ffffffffffffffffffffffffffffffffffffffff16815260200190815260200160002054600560003373ffffffffffffffffffffffffffffffffffffffff1673ffffffffffffffffffffffffffffffffffffffff168152602001908152602001600020819055505b6001600260003373ffffffffffffffffffffffffffffffffffffffff1673ffffffffffffffffffffffffffffffffffffffff168152602001908152602001600020819055506109d1565b6001600260003373ffffffffffffffffffffffffffffffffffffffff1673ffffffffffffffffffffffffffffffffffffffff16815260200190815260200160002060008282546109849190611074565b925050819055506000600560003373ffffffffffffffffffffffffffffffffffffffff1673ffffffffffffffffffffffffffffffffffffffff168152602001908152602001600020819055505b610a1c565b6001600260003373ffffffffffffffffffffffffffffffffffffffff1673ffffffffffffffffffffffffffffffffffffffff168152602001908152602001600020819055505b6001600360003373ffffffffffffffffffffffffffffffffffffffff1673ffffffffffffffffffffffffffffffffffffffff1681526020019081526020016000206000828254610a6c9190611074565b92505081905550600460003373ffffffffffffffffffffffffffffffffffffffff1673ffffffffffffffffffffffffffffffffffffffff16815260200190815260200160002054600260003373ffffffffffffffffffffffffffffffffffffffff1673ffffffffffffffffffffffffffffffffffffffff168152602001908152602001600020541115610b7d57600260003373ffffffffffffffffffffffffffffffffffffffff1673ffffffffffffffffffffffffffffffffffffffff16815260200190815260200160002054600460003373ffffffffffffffffffffffffffffffffffffffff1673ffffffffffffffffffffffffffffffffffffffff168152602001908152602001600020819055505b80600160003373ffffffffffffffffffffffffffffffffffffffff1673ffffffffffffffffffffffffffffffffffffffff168152602001908152602001600020819055503373ffffffffffffffffffffffffffffffffffffffff167f7ee98e33fca8a7760214caad862e1a72f20c4561e6d9be2fdb1dbf558af93eb1600260003373ffffffffffffffffffffffffffffffffffffffff1673ffffffffffffffffffffffffffffffffffffffff1681526020019081526020016000205483604051610c4892919061101c565b60405180910390a25050565b60046020528060005260406000206000915090505481565b610c74610cf2565b600073ffffffffffffffffffffffffffffffffffffffff168173ffffffffffffffffffffffffffffffffffffffff1603610ce65760006040517f1e4fbdf7000000000000000000000000000000000000000000000000000000008152600401610cdd9190610f18565b60405180910390fd5b610cef81610d79565b50565b610cfa610e3d565b73ffffffffffffffffffffffffffffffffffffffff16610d186106f4565b73ffffffffffffffffffffffffffffffffffffffff1614610d7757610d3b610e3d565b6040517f118cdaa7000000000000000000000000000000000000000000000000000000008152600401610d6e9190610f18565b60405180910390fd5b565b60008060009054906101000a900473ffffffffffffffffffffffffffffffffffffffff169050816000806101000a81548173ffffffffffffffffffffffffffffffffffffffff021916908373ffffffffffffffffffffffffffffffffffffffff1602179055508173ffffffffffffffffffffffffffffffffffffffff168173ffffffffffffffffffffffffffffffffffffffff167f8be0079c531659141344cd1fd0a4f28419497f9722a3daafe3b4186f6b6457e060405160405180910390a35050565b600033905090565b6000819050919050565b610e5881610e45565b82525050565b6000602082019050610e736000830184610e4f565b92915050565b600080fd5b600073ffffffffffffffffffffffffffffffffffffffff82169050919050565b6000610ea982610e7e565b9050919050565b610eb981610e9e565b8114610ec457600080fd5b50565b600081359050610ed681610eb0565b92915050565b600060208284031215610ef257610ef1610e79565b5b6000610f0084828501610ec7565b91505092915050565b610f1281610e9e565b82525050565b6000602082019050610f2d6000830184610f09565b92915050565b600082825260208201905092915050565b7f496e73756666696369656e742066656500000000000000000000000000000000600082015250565b6000610f7a601083610f33565b9150610f8582610f44565b602082019050919050565b60006020820190508181036000830152610fa981610f6d565b9050919050565b7f4e6f2062726f6b656e2073747265616b20746f20726573746f72650000000000600082015250565b6000610fe6601b83610f33565b9150610ff182610fb0565b602082019050919050565b6000602082019050818103600083015261101581610fd9565b9050919050565b60006040820190506110316000830185610e4f565b61103e6020830184610e4f565b9392505050565b7f4e487b7100000000000000000000000000000000000000000000000000000000600052601160045260246000fd5b600061107f82610e45565b915061108a83610e45565b92508282019050808211156110a2576110a1611045565b5b92915050565b7f416c726561647920474d276420696e206c617374203234680000000000000000600082015250565b60006110de601883610f33565b91506110e9826110a8565b602082019050919050565b6000602082019050818103600083015261110d816110d1565b905091905056fea26469706673582212206e333eadc72a5e0b48e51bd4c72ab8b28a035c160616245a26956f56085e7f1864736f6c63430008180033",
  "linkReferences": {},
  "deployedLinkReferences": {}
}